{
  "_format": "hh-sol-artifact-1",
  "contractName": "Bank",
  "sourceName": "contracts/Bank.sol",
  "abi": [
    {
      "inputs": [],
      "stateMutability": "nonpayable",
      "type": "constructor"
    },
    {
      "anonymous": false,
      "inputs": [
        {
          "indexed": true,
          "internalType": "address",
          "name": "_from",
          "type": "address"
        },
        {
          "indexed": false,
          "internalType": "uint256",
          "name": "_time",
          "type": "uint256"
        },
        {
          "indexed": false,
          "internalType": "uint256",
          "name": "_amount",
          "type": "uint256"
        }
      ],
      "name": "Deposit",
      "type": "event"
    },
    {
      "inputs": [],
      "name": "Owner",
      "outputs": [
        {
          "internalType": "address",
          "name": "",
          "type": "address"
        }
      ],
      "stateMutability": "view",
      "type": "function"
    },
    {
      "inputs": [
        {
          "internalType": "address",
          "name": "",
          "type": "address"
        }
      ],
      "name": "contributions",
      "outputs": [
        {
          "internalType": "uint256",
          "name": "",
          "type": "uint256"
        }
      ],
      "stateMutability": "view",
      "type": "function"
    },
    {
      "inputs": [
        {
          "internalType": "uint256",
          "name": "",
          "type": "uint256"
        }
      ],
      "name": "data",
      "outputs": [
        {
          "internalType": "string",
          "name": "name",
          "type": "string"
        },
        {
          "internalType": "string",
          "name": "message",
          "type": "string"
        },
        {
          "internalType": "uint256",
          "name": "timestamp",
          "type": "uint256"
        },
        {
          "internalType": "address",
          "name": "from",
          "type": "address"
        }
      ],
      "stateMutability": "view",
      "type": "function"
    },
    {
      "inputs": [
        {
          "internalType": "string",
          "name": "_name",
          "type": "string"
        },
        {
          "internalType": "string",
          "name": "_message",
          "type": "string"
        }
      ],
      "name": "deposit",
      "outputs": [],
      "stateMutability": "payable",
      "type": "function"
    },
    {
      "inputs": [],
      "name": "getData",
      "outputs": [
        {
          "components": [
            {
              "internalType": "string",
              "name": "name",
              "type": "string"
            },
            {
              "internalType": "string",
              "name": "message",
              "type": "string"
            },
            {
              "internalType": "uint256",
              "name": "timestamp",
              "type": "uint256"
            },
            {
              "internalType": "address",
              "name": "from",
              "type": "address"
            }
          ],
          "internalType": "struct Bank.Data[]",
          "name": "",
          "type": "tuple[]"
        }
      ],
      "stateMutability": "view",
      "type": "function"
    },
    {
      "inputs": [],
      "name": "raisedAmount",
      "outputs": [
        {
          "internalType": "uint256",
          "name": "",
          "type": "uint256"
        }
      ],
      "stateMutability": "view",
      "type": "function"
    }
  ],
  "bytecode": "0x608060405234801561001057600080fd5b50336000806101000a81548173ffffffffffffffffffffffffffffffffffffffff021916908373ffffffffffffffffffffffffffffffffffffffff160217905550611182806100606000396000f3fe6080604052600436106100555760003560e01c80633bc5de301461005a57806342e94c90146100855780637a9b486d146100c2578063b4a99a4e146100de578063c59ee1dc14610109578063f0ba844014610134575b600080fd5b34801561006657600080fd5b5061006f610174565b60405161007c9190610a00565b60405180910390f35b34801561009157600080fd5b506100ac60048036038101906100a79190610a58565b610357565b6040516100b99190610a94565b60405180910390f35b6100dc60048036038101906100d79190610b14565b61036f565b005b3480156100ea57600080fd5b506100f3610650565b6040516101009190610ba4565b60405180910390f35b34801561011557600080fd5b5061011e610674565b60405161012b9190610a94565b60405180910390f35b34801561014057600080fd5b5061015b60048036038101906101569190610beb565b61067a565b60405161016b9493929190610c62565b60405180910390f35b60606001805480602002602001604051908101604052809291908181526020016000905b8282101561034e57838290600052602060002090600402016040518060800160405290816000820180546101cb90610ce4565b80601f01602080910402602001604051908101604052809291908181526020018280546101f790610ce4565b80156102445780601f1061021957610100808354040283529160200191610244565b820191906000526020600020905b81548152906001019060200180831161022757829003601f168201915b5050505050815260200160018201805461025d90610ce4565b80601f016020809104026020016040519081016040528092919081815260200182805461028990610ce4565b80156102d65780601f106102ab576101008083540402835291602001916102d6565b820191906000526020600020905b8154815290600101906020018083116102b957829003601f168201915b50505050508152602001600282015481526020016003820160009054906101000a900473ffffffffffffffffffffffffffffffffffffffff1673ffffffffffffffffffffffffffffffffffffffff1673ffffffffffffffffffffffffffffffffffffffff168152505081526020019060010190610198565b50505050905090565b60026020528060005260406000206000915090505481565b600073ffffffffffffffffffffffffffffffffffffffff163373ffffffffffffffffffffffffffffffffffffffff16036103de576040517f08c379a00000000000000000000000000000000000000000000000000000000081526004016103d590610d61565b60405180910390fd5b6001341015610422576040517f08c379a000000000000000000000000000000000000000000000000000000000815260040161041990610df3565b60405180910390fd5b6001604051806080016040528086868080601f016020809104026020016040519081016040528093929190818152602001838380828437600081840152601f19601f82011690508083019250505050505050815260200184848080601f016020809104026020016040519081016040528093929190818152602001838380828437600081840152601f19601f8201169050808301925050505050505081526020014281526020013373ffffffffffffffffffffffffffffffffffffffff16815250908060018154018082558091505060019003906000526020600020906004020160009091909190915060008201518160000190816105219190610fee565b5060208201518160010190816105379190610fee565b506040820151816002015560608201518160030160006101000a81548173ffffffffffffffffffffffffffffffffffffffff021916908373ffffffffffffffffffffffffffffffffffffffff160217905550505034600260003373ffffffffffffffffffffffffffffffffffffffff1673ffffffffffffffffffffffffffffffffffffffff16815260200190815260200160002060008282546105da91906110ef565b9250508190555034600360008282546105f391906110ef565b925050819055503373ffffffffffffffffffffffffffffffffffffffff167f90890809c654f11d6e72a28fa60149770a0d11ec6c92319d6ceb2bb0a4ea1a154234604051610642929190611123565b60405180910390a250505050565b60008054906101000a900473ffffffffffffffffffffffffffffffffffffffff1681565b60035481565b6001818154811061068a57600080fd5b90600052602060002090600402016000915090508060000180546106ad90610ce4565b80601f01602080910402602001604051908101604052809291908181526020018280546106d990610ce4565b80156107265780601f106106fb57610100808354040283529160200191610726565b820191906000526020600020905b81548152906001019060200180831161070957829003601f168201915b50505050509080600101805461073b90610ce4565b80601f016020809104026020016040519081016040528092919081815260200182805461076790610ce4565b80156107b45780601f10610789576101008083540402835291602001916107b4565b820191906000526020600020905b81548152906001019060200180831161079757829003601f168201915b5050505050908060020154908060030160009054906101000a900473ffffffffffffffffffffffffffffffffffffffff16905084565b600081519050919050565b600082825260208201905092915050565b6000819050602082019050919050565b600081519050919050565b600082825260208201905092915050565b60005b83811015610850578082015181840152602081019050610835565b60008484015250505050565b6000601f19601f8301169050919050565b600061087882610816565b6108828185610821565b9350610892818560208601610832565b61089b8161085c565b840191505092915050565b6000819050919050565b6108b9816108a6565b82525050565b600073ffffffffffffffffffffffffffffffffffffffff82169050919050565b60006108ea826108bf565b9050919050565b6108fa816108df565b82525050565b6000608083016000830151848203600086015261091d828261086d565b91505060208301518482036020860152610937828261086d565b915050604083015161094c60408601826108b0565b50606083015161095f60608601826108f1565b508091505092915050565b60006109768383610900565b905092915050565b6000602082019050919050565b6000610996826107ea565b6109a081856107f5565b9350836020820285016109b285610806565b8060005b858110156109ee57848403895281516109cf858261096a565b94506109da8361097e565b925060208a019950506001810190506109b6565b50829750879550505050505092915050565b60006020820190508181036000830152610a1a818461098b565b905092915050565b600080fd5b600080fd5b610a35816108df565b8114610a4057600080fd5b50565b600081359050610a5281610a2c565b92915050565b600060208284031215610a6e57610a6d610a22565b5b6000610a7c84828501610a43565b91505092915050565b610a8e816108a6565b82525050565b6000602082019050610aa96000830184610a85565b92915050565b600080fd5b600080fd5b600080fd5b60008083601f840112610ad457610ad3610aaf565b5b8235905067ffffffffffffffff811115610af157610af0610ab4565b5b602083019150836001820283011115610b0d57610b0c610ab9565b5b9250929050565b60008060008060408587031215610b2e57610b2d610a22565b5b600085013567ffffffffffffffff811115610b4c57610b4b610a27565b5b610b5887828801610abe565b9450945050602085013567ffffffffffffffff811115610b7b57610b7a610a27565b5b610b8787828801610abe565b925092505092959194509250565b610b9e816108df565b82525050565b6000602082019050610bb96000830184610b95565b92915050565b610bc8816108a6565b8114610bd357600080fd5b50565b600081359050610be581610bbf565b92915050565b600060208284031215610c0157610c00610a22565b5b6000610c0f84828501610bd6565b91505092915050565b600082825260208201905092915050565b6000610c3482610816565b610c3e8185610c18565b9350610c4e818560208601610832565b610c578161085c565b840191505092915050565b60006080820190508181036000830152610c7c8187610c29565b90508181036020830152610c908186610c29565b9050610c9f6040830185610a85565b610cac6060830184610b95565b95945050505050565b7f4e487b7100000000000000000000000000000000000000000000000000000000600052602260045260246000fd5b60006002820490506001821680610cfc57607f821691505b602082108103610d0f57610d0e610cb5565b5b50919050565b7f496e76616c696420416464726573730000000000000000000000000000000000600082015250565b6000610d4b600f83610c18565b9150610d5682610d15565b602082019050919050565b60006020820190508181036000830152610d7a81610d3e565b9050919050565b7f54686520616d6f756e7420746f206465706f7369742073686f756c642062652060008201527f61746c6561737420310000000000000000000000000000000000000000000000602082015250565b6000610ddd602983610c18565b9150610de882610d81565b604082019050919050565b60006020820190508181036000830152610e0c81610dd0565b9050919050565b7f4e487b7100000000000000000000000000000000000000000000000000000000600052604160045260246000fd5b60008190508160005260206000209050919050565b60006020601f8301049050919050565b600082821b905092915050565b600060088302610ea47fffffffffffffffffffffffffffffffffffffffffffffffffffffffffffffffff82610e67565b610eae8683610e67565b95508019841693508086168417925050509392505050565b6000819050919050565b6000610eeb610ee6610ee1846108a6565b610ec6565b6108a6565b9050919050565b6000819050919050565b610f0583610ed0565b610f19610f1182610ef2565b848454610e74565b825550505050565b600090565b610f2e610f21565b610f39818484610efc565b505050565b5b81811015610f5d57610f52600082610f26565b600181019050610f3f565b5050565b601f821115610fa257610f7381610e42565b610f7c84610e57565b81016020851015610f8b578190505b610f9f610f9785610e57565b830182610f3e565b50505b505050565b600082821c905092915050565b6000610fc560001984600802610fa7565b1980831691505092915050565b6000610fde8383610fb4565b9150826002028217905092915050565b610ff782610816565b67ffffffffffffffff8111156110105761100f610e13565b5b61101a8254610ce4565b611025828285610f61565b600060209050601f8311600181146110585760008415611046578287015190505b6110508582610fd2565b8655506110b8565b601f19841661106686610e42565b60005b8281101561108e57848901518255600182019150602085019450602081019050611069565b868310156110ab57848901516110a7601f891682610fb4565b8355505b6001600288020188555050505b505050505050565b7f4e487b7100000000000000000000000000000000000000000000000000000000600052601160045260246000fd5b60006110fa826108a6565b9150611105836108a6565b925082820190508082111561111d5761111c6110c0565b5b92915050565b60006040820190506111386000830185610a85565b6111456020830184610a85565b939250505056fea26469706673582212200d364c8c1e0066a459da1e87527017f42577c586b21a770f88d970354291b3a664736f6c63430008170033",
  "linkReferences": {},
  "deployedLinkReferences": {}
}